:100000001DC0FAC11EC235C034C033C032C031C0B9
:1000100030C02FC02EC02DC02CC02BC035C229C06F
:1000200028C027C026C025C024C056616C75653A1B
:1000300020004368616E6E656C3A200011241FBE7B
:10004000CFE5D2E0DEBFCDBF10E0A0E6B0E0E8E94A
:10005000F7E002C005900D92A437B107D9F711E07F
:10006000A4E7B0E001C01D92A233B107E1F7CDD201
:1000700091C3C6CF80EC84BB85BB8CEF81BB12BA29
:1000800018BA8FE887BB0895FC01808160958623AC
:10009000808308958BB7806C8BBF80EC8ABF8AE524
:1000A00090E060EC70E0F0DF8AE085BF089517B85B
:1000B0008BEE86B987B190916400887F892B87B9D0
:1000C000089587B3806B87BBBE9888B3806F88BB69
:1000D00082E58DB91EB8089588EA91E60197F1F797
:1000E0000895C4988FB9779BFECFC49A0895FF9264
:1000F0000F931F93F82E192F062F86E0F2DFC49876
:1001000082E08FB9779BFECF1FB9779BFECFFFB8F8
:10011000779BFECF0FB9779BFECFC49A1F910F91AB
:10012000FF900895282FE8EAF1E63197F1F7C49897
:1001300083E08FB9779BFECF9FB9779BFECF2FB916
:10014000779BFECF1FB8779BFECF8FB1C49A0895DF
:10015000EF92FF920F931F93CF93DF938C01EB01EC
:10016000F42EE52E86E0BDDFC49882E08FB9779B40
:10017000FECF1FB9779BFECF0FB9779BFECF8F2D98
:100180009E2D9C0105C088818FB9779BFECF21965B
:10019000215030408FEF2F3F3807A9F7C49ADF91E5
:1001A000CF911F910F91FF90EF900895909176005D
:1001B000E92FF0E0EE5EFE4F80839F5F9093760024
:1001C000809176008032C1F488EA91E60197F1F7D8
:1001D000809177009091780062E171E040E250E018
:1001E000B7DF8091770090917800809690937800A7
:1001F0008093770010927600089588EA91E601973F
:10020000F1F740917600809177009091780062E15B
:1002100071E050E09DDF2091760080917700909111
:100220007800820F911D9093780080937700109250
:100230007600089580919000B9DFFCCFCF92DF92D5
:10024000EF92FF920F931F93DF93CF93CDB7DEB75B
:10025000A0970FB6F894DEBF0FBECDBFFE0131965A
:1002600080E2DF011D928A95E9F700E010E088EA5C
:10027000C82E81E6D82E7F01C6010197F1F7C8018B
:10028000B70140E250E064DF005E1F4FB8E000308D
:100290001B0791F788EA91E60197F1F7A0960FB650
:1002A000F894DEBF0FBECDBFCF91DF911F910F91AC
:1002B000FF90EF90DF90CF90089510BC87E689B94A
:1002C0001BB888E98AB986E880BD08955D9BFECF9A
:1002D0008CB9089580E090E0FC01EE5EFE4FE08175
:1002E0005D9BFECFECB9019680329105A9F7089588
:1002F0005F9BFECF8CB10895AFE6B0E0E7E6F0E09B
:100300009FEF8C9184BB15BA9D9B91819C9B9081A2
:100310001196329680E0A337B80799F7892F089590
:10032000282F8CEF81BB87B38F6087BB8091100132
:100330009091110101969093110180931001662311
:1003400011F4AE9801C0AE9A88B3807F88BB98B391
:10035000822F8F70892B88BB82B38F7082BB82B350
:10036000207F822B82BBAF9A84ED90E3FC01319712
:10037000F1F7AF980197F1F708958AEF90E00197B0
:10038000F1F781E060E0CCDF08950F931F9388E3DD
:1003900060E0C6DF0AEF10E0C8010197F1F781E0E5
:1003A00060E0BEDFC8010197F1F786E060E0B8DFEA
:1003B000C8010197F1F78CE060E0B2DF1F910F9167
:1003C0000895EAEFF0E03197F1F78295880F880FF2
:1003D000807C860F806860E0A3DF0895CF93DF9371
:1003E000EA01EFDF03C0219661E09ADF888188236C
:1003F000D1F7DF91CF9108951F920F920FB60F9210
:1004000011242F933F934F935F936F937F938F9319
:100410009F93AF93BF93EF93FF936EDF809364003E
:10042000FF91EF91BF91AF919F918F917F916F91CC
:100430005F914F913F912F910F900FBE0F901F90A2
:1004400018951F920F920FB60F9211242F933F937E
:100450004F935F936F937F938F939F93AF93BF93CC
:10046000EF93FF93EBDEFF91EF91BF91AF919F91DF
:100470008F917F916F915F914F913F912F910F904D
:100480000FBE0F901F9018951F920F920FB60F92EC
:1004900011242F938F939F93EF93FF938091760076
:1004A0008032B8F484B195B1909375008093740054
:1004B00020917600E22FF0E084B195B19695879572
:1004C00096958795EE5EFE4F80832F5F2093760092
:1004D00001C0F894FF91EF919F918F912F910F9010
:1004E0000FBE0F901F901895F894C4DDD3DD4DDF3B
:1004F00010BC87E689B91BB888E98AB986E880BD4F
:10050000E0DD789408950F931F9388EA91E60197B0
:10051000F1F7809177009091780062E171E040E21C
:1005200050E016DE8091770090917800809690934D
:1005300078008093770010927600CCDE8091640082
:100540008F5C809365001092660082E069E045E66A
:1005500050E044DF809131010FE710E090E0B801F6
:100560004AE050E0D4D081E069E040E650E036DF78
:1005700081E069E0A80132DF1F910F910895CF92C9
:10058000DF92EF92FF920F931F93DF93CF93CDB73C
:10059000DEB78A01CDB6DEB614DFC801AFD02DB705
:1005A0003EB7281B390B0FB6F8943EBF0FBE2DBFC8
:1005B000EDB6FEB60894E11CF11CC701B80197D056
:1005C00000E003C00F5F61E0ABDEF701E00FF11D5B
:1005D00080818823B9F70FB6F894DEBE0FBECDBE7A
:1005E000CF91DF911F910F91FF90EF90DF90CF900F
:1005F0000895C3DE82E060E042E350E0C0DF81E0C6
:1006000060E04AE250E0BBDF08951F936DDFF1DF49
:10061000809164008930E1F317B88BEE86B987B119
:1006200090916400887F892B87B91BEE2091770019
:1006300030917800809176008032E1F787E0203DAC
:100640003807C0F7F8945FDF57DE8F3F19F054DEAC
:100650008093640017B816B987B190916400887FC1
:10066000892B87B97894E2CFCF92DF92EF92FF92F5
:100670000F931F93DF93CF93CDB7DEB78C01CDB629
:10068000DEB63CD02DB73EB7281B390B0FB6F89419
:100690003EBF0FBE2DBFEDB6FEB60894E11CF11CA7
:1006A000C701B80124D080E004C05D9BFECF8F5FFE
:1006B000ECB9F701E80FF11DE081EE23B1F70FB6B9
:1006C000F894DEBE0FBECDBECF91DF911F910F918A
:1006D000FF90EF90DF90CF900895C6DF5D9BFECF37
:1006E0008DE08CB95D9BFECF8AE08CB90895FB014B
:1006F000DC0105900D920020E1F70895FC010590C2
:100700000020E9F7809590958E0F9F1F0895FB01BB
:100710009F01E8944230BCF04532ACF44A3029F4F1
:1007200097FB1EF4909581959F4F642F77271ED0DD
:10073000805D8A330CF0895D8193CB010097A9F726
:1007400016F45DE251931082C90100C0DC01FC0186
:10075000672F71917723E1F7329704C07C916D93F5
:1007600070836291AE17BF07C8F30895AA1BBB1B25
:1007700051E107C0AA1FBB1FA617B70710F0A61BA1
:10078000B70B881F991F5A95A9F780959095BC01C2
:08079000CD010895F894FFCF9C
:10079800202020000900000004010502060307C10B
:0407A800C2C4C800FF
:00000001FF
