:1000000014C06BC18FC12CC02BC02AC029C028C00E
:1000100027C026C025C024C023C022C0A6C120C03E
:100020001FC01EC01DC01CC01BC011241FBECFE5B9
:10003000D2E0DEBFCDBF10E0A0E6B0E0E0E3F6E046
:1000400002C005900D92A638B107D9F710E0A6E8D6
:10005000B0E001C01D92A93AB107E1F722D2E6C291
:10006000CFCF80EC84BB85BB8CEF81BB12BA18BAB2
:100070008FE887BB0895FC0180816095862380838B
:1000800008958BB7806C8BBF80EC8ABF8AE590E0C7
:1000900060EC70E0F0DF8AE085BF089517B88BEE62
:1000A00086B987B190917800887F892B87B90895A8
:1000B00087B3806B87BBBE9888B3806F88BB82E5AF
:1000C0008DB91EB8089588EA91E60197F1F7089571
:1000D000C4988FB9779BFECFC49A0895EF92FF9290
:1000E0000F931F93CF93DF938C01EB01F42EE52E3A
:1000F00086E0EEDFC49882E08FB9779BFECF1FB910
:10010000779BFECF0FB9779BFECF8F2D9E2D9C0145
:1001100005C088818FB9779BFECF21962150304052
:100120008FEF2F3F3807A9F7C49ADF91CF911F9126
:100130000F91FF90EF900895CF92DF92EF92FF9290
:100140000F931F93DF93CF93CDB7DEB7A0970FB672
:10015000F894DEBF0FBECDBFFE01319680E2DF0115
:100160001D928A95E9F700E010E088EAC82E81E642
:10017000D82E7F01C6010197F1F7C801B70140E20F
:1001800050E0ACDF005E1F4FB8E000301B0791F776
:1001900088EA91E60197F1F7A0960FB6F894DEBFD2
:1001A0000FBECDBFCF91DF911F910F91FF90EF90C8
:1001B000DF90CF90089510BC88E689B91BB888E914
:1001C0008AB986E880BD08955D9BFECF8CB90895FD
:1001D00080E090E0FC01E757FF4FE0815D9BFECFA0
:1001E000ECB9019680329105A9F70895A1E8B0E035
:1001F000E9E7F0E09FEF8C9184BB15BA9D9B91815C
:100200009C9B90811196329680E0A538B80799F7AB
:10021000892F0895282F8CEF81BB87B38F6087BB10
:10022000662311F4AE9801C0AE9A88B3807F88BB74
:1002300098B3822F8F70892B88BB82B38F7082BB5B
:1002400082B3207F822B82BBAF9A86ED96E0FC01C1
:100250003197F1F7AF980197F1F708958AEF90E0A1
:100260000197F1F781E060E0D5DF08950F931F93C8
:1002700088E360E0CFDF0AEF10E0C8010197F1F7F3
:1002800081E060E0C7DFC8010197F1F786E060E038
:10029000C1DFC8010197F1F78CE060E0BBDF1F917F
:1002A0000F910895EAEFF0E03197F1F78295880F0A
:1002B000880F807C860F806860E0ACDF0895CF9364
:1002C000DF93EA01EFDF03C0219661E0A3DF8881BD
:1002D0008823D1F7DF91CF9108951F920F920FB627
:1002E0000F9211242F933F934F935F936F937F93BC
:1002F0008F939F93AF93BF93EF93FF9377DF809399
:100300007800FF91EF91BF91AF919F918F917F9175
:100310006F915F914F913F912F910F900FBE0F9072
:100320001F9018951F920F920FB60F9211242F93C2
:100330003F934F935F936F937F938F939F93AF936D
:10034000BF93EF93FF93F8DEFF91EF91BF91AF91D1
:100350009F918F917F916F915F914F913F912F91DD
:100360000F900FBE0F901F9018951F920F920FB60F
:100370000F9211242F938F939F93EF93FF9380916C
:100380008600803280F420918600E22FF0E084B174
:1003900095B19695879596958795E757FF4F8083FA
:1003A0002F5F20938600FF91EF919F918F912F9166
:1003B0000F900FBE0F901F901895F89452DE61DEDB
:1003C00055DF10BC88E689B91BB888E98AB986E888
:1003D00080BD6EDE7894089541DF82E060E040E603
:1003E00050E06DDF81E060E04AE650E068DF0895AC
:1003F0000F931F93DF93CF93CDB7DEB763970FB6FD
:10040000F894DEBF0FBECDBF80917600909177004B
:100410009A8389838E010D5F1F4F81E1F80111924C
:100420008A95E9F788EA91E60197F1F780918700CC
:100430009091880069E870E040E250E04FDE8091E2
:100440008700909188008096909388008093870021
:1004500010928600BDDE809178008F5C89831A82BD
:1004600082E069E0AE014F5F5F4F29DF8091A80015
:1004700090E0B8014AE050E096D081E069E042E7C0
:1004800050E01DDF81E069E0A80119DF63960FB637
:10049000F894DEBF0FBECDBFCF91DF911F910F91BA
:1004A00008951F938ADF98DF809178008930E1F307
:1004B00017B88BEE86B987B190917800887F892B29
:1004C00087B91BEE209187003091880080918600CB
:1004D0008032E1F787E0203D3807C0F7F89488DFE5
:1004E00085DE8F3F19F082DE8093780017B816B949
:1004F00087B190917800887F892B87B97894E2CF73
:10050000CF92DF92EF92FF920F931F93DF93CF93DF
:10051000CDB7DEB78C01CDB6DEB63CD02DB73EB739
:10052000281B390B0FB6F8943EBF0FBE2DBFEDB69A
:10053000FEB60894E11CF11CC701B80124D080E08C
:1005400004C05D9BFECF8F5FECB9F701E80FF11D92
:10055000E081EE23B1F70FB6F894DEBE0FBECDBE3C
:10056000CF91DF911F910F91FF90EF90DF90CF908F
:100570000895C6DF5D9BFECF8DE08CB95D9BFECFFD
:100580008AE08CB90895FB01DC0105900D920020F2
:10059000E1F70895FC0105900020E9F7809590951A
:1005A0008E0F9F1F0895FB019F01E8944230BCF01D
:1005B0004532ACF44A3029F497FB1EF490958195AE
:1005C0009F4F642F77271ED0805D8A330CF0895DA2
:1005D0008193CB010097A9F716F45DE25193108245
:1005E000C90100C0DC01FC01672F71917723E1F79D
:1005F000329704C07C916D9370836291AE17BF07F0
:10060000C8F30895AA1BBB1B51E107C0AA1FBB1F5B
:10061000A617B70710F0A61BB70B881F991F5A958E
:10062000A9F780959095BC01CD010895F894FFCF6E
:100630004368616E6E656C3A200056616C75653A70
:10064000200020202000000009000401050206030C
:0606500007C1C2C4C8008E
:00000001FF
