:1000000014C059C17DC12CC02BC02AC029C028C032
:1000100027C026C025C024C023C022C094C120C050
:100020001FC01EC01DC01CC01BC011241FBECFE5B9
:10003000D2E0DEBFCDBF10E0A0E6B0E0E6E1F6E042
:1000400002C005900D92A638B107D9F710E0A6E8D6
:10005000B0E001C01D92A93AB107E1F717D2D9C2A9
:10006000CFCF8FEF87BB84BB82EC81BB12BA80EC11
:1000700088BB0895FC018081609586238083089564
:100080008BB7806C8BBF80EC8ABF8AE590E060EC18
:1000900070E0F0DF8AE085BF089587B19091780025
:1000A000887D892B87B98EEE86B9089587B3806BDA
:1000B00087BBBE9888B3806F88BB82E58DB91EB8B8
:1000C000089588EA91E60197F1F70895C4988FB9E9
:1000D000779BFECFC49A0895EF92FF920F931F93E0
:1000E000CF93DF938C01EB01F42EE52E86E0EEDF5B
:1000F000C49882E08FB9779BFECF1FB9779BFECF64
:100100000FB9779BFECF8F2D9E2D9C0105C0888156
:100110008FB9779BFECF2196215030408FEF2F3F34
:100120003807A9F7C49ADF91CF911F910F91FF90E3
:10013000EF900895CF92DF92EF92FF920F931F936B
:10014000DF93CF93CDB7DEB7A0970FB6F894DEBF9D
:100150000FBECDBFFE01319680E2DF011D928A9570
:10016000E9F700E010E088EAC82E81E6D82E7F018A
:10017000C6010197F1F7C801B70140E250E0ACDFDA
:10018000005E1F4FB8E000301B0791F788EA91E648
:100190000197F1F7A0960FB6F894DEBF0FBECDBF62
:1001A000CF91DF911F910F91FF90EF90DF90CF9053
:1001B000089510BC88E689B91BB888E98AB986E831
:1001C00080BD08955D9BFECF8CB9089580E090E0DE
:1001D000FC01E757FF4FE0815D9BFECFECB9019634
:1001E00080329105A9F70895A1E8B0E0E9E7F0E0D1
:1001F0002FEF87B3807F87BB87B39C91892B87BB09
:10020000859B2181849B20811196329680E0A538C0
:10021000B80779F7822F0895662311F4969801C0E4
:10022000969A85BB979A86ED96E0FC013197F1F797
:1002300097980197F1F708958AEF90E00197F1F709
:1002400081E060E0E9DF08950F931F9388E360E0A9
:10025000E3DF0AEF10E0C8010197F1F781E060E009
:10026000DBDFC8010197F1F786E060E0D5DFC80168
:100270000197F1F78CE060E0CFDF1F910F910895B7
:10028000EAEFF0E03197F1F78295880F880F807CD4
:10029000860F806860E0C0DF0895CF93DF93EA01A6
:1002A000EFDF03C0219661E0B7DF88818823D1F7B3
:1002B000DF91CF9108951F920F920FB60F921124E4
:1002C0002F933F934F935F936F937F938F939F935E
:1002D000AF93BF93EF93FF9387DF80937800FF91F5
:1002E000EF91BF91AF919F918F917F916F915F91AE
:1002F0004F913F912F910F900FBE0F901F90189527
:100300001F920F920FB60F9211242F933F934F938A
:100310005F936F937F938F939F93AF93BF93EF936D
:10032000FF9308DFFF91EF91BF91AF919F918F9164
:100330007F916F915F914F913F912F910F900FBEE1
:100340000F901F9018951F920F920FB60F921124C5
:100350002F938F939F93EF93FF938091860080322A
:1003600080F420918600E22FF0E084B195B196955B
:10037000879596958795E757FF4F80832F5F20934A
:100380008600FF91EF919F918F912F910F900FBE5B
:100390000F901F901895F8948FEF87BB84BB82EC69
:1003A00081BB12BA80EC88BB6BDE4EDF10BC88E6E6
:1003B00089B91BB888E98AB986E880BD77DE789468
:1003C00008953ADF82E060E040E650E066DF81E0D9
:1003D00060E04AE650E061DF08950F931F93DF93DA
:1003E000CF93CDB7DEB763970FB6F894DEBF0FBEDD
:1003F000CDBF80917600909177009A8389838E019A
:100400000D5F1F4F81E1F80111928A95E9F788EAA3
:1004100091E60197F1F7809187009091880069E853
:1004200070E040E250E058DE8091870090918800B3
:100430008096909388008093870010928600C6DE95
:10044000809178008F5C89831A8282E069E0AE0136
:100450004F5F5F4F22DF8091A80090E0B8014AE033
:1004600050E094D081E069E042E750E016DF81E09F
:1004700069E0A80112DF63960FB6F894DEBF0FBEE5
:10048000CDBFCF91DF911F910F9108951F9383DF0F
:1004900098DF809178008930E1F387B190917800FE
:1004A000887D892B87B98EEE86B91EEE2091870054
:1004B00030918800809186008032E1F787E0203D0E
:1004C0003807C0F7F89489DF8FDE8F3F19F08CDE94
:1004D0008093780087B190917800887D892B87B9C7
:1004E00016B97894E3CFCF92DF92EF92FF920F93F9
:1004F0001F93DF93CF93CDB7DEB78C01CDB6DEB6B9
:100500003CD02DB73EB7281B390B0FB6F8943EBF31
:100510000FBE2DBFEDB6FEB60894E11CF11CC7015D
:10052000B80124D080E004C05D9BFECF8F5FECB9A2
:10053000F701E80FF11DE081EE23B1F70FB6F89453
:10054000DEBE0FBECDBECF91DF911F910F91FF9008
:10055000EF90DF90CF900895C6DF5D9BFECF8DE0DA
:100560008CB95D9BFECF8AE08CB90895FB01DC015C
:1005700005900D920020E1F70895FC010590002000
:10058000E9F7809590958E0F9F1F0895FB019F01BD
:10059000E8944230BCF04532ACF44A3029F497FB81
:1005A0001EF4909581959F4F642F77271ED0805D14
:1005B0008A330CF0895D8193CB010097A9F716F47B
:1005C0005DE251931082C90100C0DC01FC01672F7C
:1005D00071917723E1F7329704C07C916D9370831A
:1005E0006291AE17BF07C8F30895AA1BBB1B51E168
:1005F00007C0AA1FBB1FA617B70710F0A61BB70B93
:10060000881F991F5A95A9F780959095BC01CD0137
:060610000895F894FFCFED
:100616004368616E6E656C3A200056616C75653A8A
:100626002000202020000000090004010502060326
:06063600070102040800A8
:00000001FF
